S019000070726F62616E646F5F6A6F79737469636B2E73726563E7
S11300000C9434000C9451000C9451000C94510045
S11300100C9451000C9451000C9451000C94510018
S11300200C9451000C9451000C9451000C94510008
S11300300C9451000C9451000C9451000C945100F8
S11300400C9451000C9451000C9451000C945100E8
S11300500C9451000C9451000C9451000C945100D8
S11300600C9451000C94510011241FBECFEFD8E022
S1130070DEBFCDBF11E0A0E0B1E0EEE2F9E002C0E6
S113008005900D92AE34B107D9F721E0AEE4B1E0AA
S113009001C01D92A435B207E1F70E94C6000C947A
S11300A095040C940000E0ECF0E0908195FFFDCF06
S11300B08093C60080E090E00895E0ECF0E0808159
S11300C08823ECF78091C60090E00895CF93DF93E6
S11300D0D62FC42F9C01990F440B550B60E472E496
S11300E08FE090E00E944601215031093093C50011
S11300F02093C400E0ECF0E080818D7F8083E1EC0C
S1130100F0E0808188618083E2ECF0E080818E60A1
S11301108083EEE4F1E080E091E091838083938337
S11301208283DD2351F0E0ECF0E080818F778083DF
S1130130E1ECF0E0808180688083CC2351F0E0EC36
S1130140F0E080818F7B8083E1ECF0E0808180644B
S11301508083DF91CF910895ECE7F0E08083808184
S113016080648083808180628083EAE7F0E080811C
S113017083608083808180688083808180648083C1
S1130180808186FDFDCF80917900089540E061E093
S113019080E895E20E94660083E191E00E949D015F
S11301A085B78F7E85BF2098219853985298579889
S11301B05798289A299A5B9A5A9A5F9A5C9A07E206
S11301C011E0CAE3D1E02FEF81EE94E021508040AA
S11301D09040E1F700C0000081E00E94AC00F82EDE
S11301E080E00E94AC00E82E82E00E94AC00D82E91
S11301F083E00E94AC00C82E87E00E94AC00B82EB9
S113020086E00E94AC001F928F931F92BF921F92B0
S1130210CF921F92DF921F92EF921F92FF921F9331
S11302200F930E94870123B133B149B159B189B108
S113023099B1929591701F929F93807890E0880F66
S1130240892F881F990B99279F938F9352FB882797
S113025080F91F928F9343FB882780F91F928F9315
S113026031FB882780F91F928F93822F81701F9210
S11302708F93DF93CF930E9487018DB79EB74C96DF
S11302800FB6F8949EBF0FBE8DBF9DCF052E97FB72
S11302901EF400940E945D0157FD07D00E94650181
S11302A007FC03D04EF40C945D01509540953095B5
S11302B021953F4F4F4F5F4F0895909580957095CE
S11302C061957F4F8F4F9F4F0895A1E21A2EAA1B6D
S11302D0BB1BFD010DC0AA1FBB1FEE1FFF1FA217F2
S11302E0B307E407F50720F0A21BB30BE40BF50BEF
S11302F0661F771F881F991F1A9469F76095709578
S1130300809590959B01AC01BD01CF010895A0E0BB
S1130310B0E0EDE8F1E00C946E04AE014B5F5F4F8A
S1130320FA0161917191AF01809150019091510155
S11303300E94CD01E2E00C948A040F931F93CF93A3
S1130340DF93E0915001F0915101238121FF1BC003
S11303508C01D0E0C0E0F80181918F0160915001DF
S113036070915101DB011896ED91FC911997882346
S113037031F00995892B79F3DFEFCFEFECCF8AE0E9
S11303800995892B19F08FEF9FEF02C08D2F9C2FB9
S1130390DF91CF911F910F910895ABE0B0E0E3EDB1
S11303A0F1E00C945E046C017B018A01FC0117826C
S11303B01682838181FFCCC1CE0101963C01F601F6
S11303C09381F70193FD859193FF81917F018823A8
S11303D009F4BAC1853239F493FD859193FF819173
S11303E07F01853229F4B60190E00E94C403E7CF6F
S11303F0912C212C312CFFE1F315D8F08B3279F0BC
S113040038F4803279F08332A1F4232D20611DC0A9
S11304108D3261F0803369F4232D216016C0832D61
S11304208260382EE32DE4603E2E2AC0F32DF8605E
S11304301DC037FC2DC020ED280F2A3040F08E322D
S1130440B9F436FC81C1232D2064322E19C036FE46
S113045006C08AE0989E200D1124922E11C0EAE075
S11304602E9E200D1124222EF32DF0623F2E08C063
S11304708C3621F4832D8068382E02C0883641F4EE
S1130480F70193FD859193FF81917F018111B3CF92
S1130490982F9F7D9554933028F40C5F1F4F9FE352
S11304A099830DC0833631F0833771F0833509F0B9
S11304B059C021C0F801808189830E5F1F4F8824B1
S11304C08394912C530113C02801F2E04F0E511C68
S11304D0F801A080B18036FE03C0692D70E002C02F
S11304E06FEF7FEFC5010E94B9034C018201F32D28
S11304F0FF773F2E16C0280122E0420E511CF8015E
S1130500A080B18036FE03C0692D70E002C06FEF99
S11305107FEFC5010E94AE034C01F32DF0683F2E1E
S1130520820133FC1BC0822D90E088169906B0F43A
S1130530B60180E290E00E94C4032A94F4CFF5014E
S113054037FC859137FE81915F01B60190E00E94EE
S1130550C40321102A9421E0821A91088114910481
S113056071F7E8C0843611F0893641F5F80137FE99
S113057007C060817181828193810C5F1F4F08C025
S113058060817181072E000C880B990B0E5F1F4F41
S1130590F32DFF763F2E97FF09C0909580957095B7
S11305A061957F4F8F4F9F4FF0683F2E2AE030E0D8
S11305B0A3010E940004882E861845C0853731F4B3
S11305C0232D2F7EB22E2AE030E025C0932D997F73
S11305D0B92E8F36C1F018F4883579F0B5C080375C
S11305E019F0883721F0B0C0E92FE061BE2EB4FEC7
S11305F00DC0FB2DF460BF2E09C034FE0AC0292FA4
S11306002660B22E06C028E030E005C020E130E0CC
S113061002C020E132E0F801B7FE07C060817181B9
S1130620828193810C5F1F4F06C06081718180E0DD
S113063090E00E5F1F4FA3010E940004882E8618CD
S1130640FB2DFF773F2E36FE0DC0232D2E7FA22ECD
S1130650891458F434FE0BC032FC09C0832D8E7EFD
S1130660A82E05C0B82CA32C03C0B82C01C0B92CEB
S1130670A4FE0FC0FE01E80DF11D8081803321F43A
S11306809A2D997EA92E09C0A2FE06C0B394B394F4
S113069004C08A2D867809F0B394A3FC11C0A0FE8F
S11306A006C0B21488F4280C922C9B180EC0B21405
S11306B060F4B60180E290E00E94C403B394F7CFE3
S11306C0B21418F42B1802C0982C212CA4FE10C0CC
S11306D0B60180E390E00E94C403A2FE17C0A1FC0F
S11306E003C088E790E002C088E590E0B6010CC042
S11306F08A2D867859F0A1FE02C08BE201C080E207
S1130700A7FC8DE2B60190E00E94C403891438F47A
S1130710B60180E390E00E94C4039A94F7CF8A94D0
S1130720F301E80DF11D8081B60190E00E94C4033D
S11307308110F5CF222009F442CEB60180E290E088
S11307400E94C4032A94F6CFF6018681978102C0E1
S11307508FEF9FEF2B96E2E10C947A04FC01059055
S1130760615070400110D8F7809590958E0F9F1FAF
S11307700895FC016150704001900110D8F78095F4
S113078090958E0F9F1F08950F931F93CF93DF9320
S1130790FB01238121FD03C08FEF9FEF2CC022FFBB
S11307A016C046815781248135814217530744F48A
S11307B0A081B1819D012F5F3F4F318320838C93B2
S11307C0268137812F5F3F4F3783268314C08B01E7
S11307D0EC01FB010084F185E02D0995892BE1F6FC
S11307E0D80116968D919C911797019617969C9314
S11307F08E931697CE01DF91CF911F910F9108959B
S1130800FA01AA27283051F1203181F1E8946F933D
S11308106E7F6E5F7F4F8F4F9F4FAF4FB1E03ED0E3
S1130820B4E03CD0670F781F891F9A1FA11D680F81
S1130830791F8A1F911DA11D6A0F711D811D911DB4
S1130840A11D20D009F468943F912AE0269F112429
S11308503019305D3193DEF6CF010895462F47708D
S1130860405D4193B3E00FD0C9F7F6CF462F4F70E8
S1130870405D4A3318F0495D31FD4052419302D046
S1130880A9F7EACFB4E0A6959795879577956795EC
S1130890BA95C9F700976105710508959B01AC01EC
S11308A00A2E06945795479537952795BA95C9F713
S11308B0620F731F841F951FA01D08952F923F92EE
S11308C04F925F926F927F928F929F92AF92BF925C
S11308D0CF92DF92EF92FF920F931F93CF93DF9308
S11308E0CDB7DEB7CA1BDB0B0FB6F894DEBF0FBE65
S11308F0CDBF09942A88398848885F846E847D84B2
S11309008C849B84AA84B984C884DF80EE80FD80B3
S11309100C811B81AA81B981CE0FD11D0FB6F89429
S1110920DEBF0FBECDBFED010895F894FFCFEA
S113092E000000030000000053005D00000025736A
S113093E3A20002E2E2E496E696369616C697A61C4
S113094E6E646F2E2E2E00256420256420256420CF
S113095E2564202564202564200025642025642038
S111096E25642025642025642025640A0000E9
S9030000FC
